01REMESSA01COBRANCA       0000 00000000 000000                              237Bradesco       0000000000001                      0000000                                                                                                                                                                                                                                                                  000001
1000000000000000005633 45889785 0000000EMPRESA LTDA             000000000000000000000               000                 00001          0000000000000000000002370000 01N000000    0000000000000000000000000000000000000000000000000000000000000000000000000000000000                                                                                               00000000                                                                                000001
