01REMESSA01COBRANCA       0123 00134567 000000FOO BAR LTDA                  237Bradesco       0000000000001                      0012562                                                                                                                                                                                                                                                                  012562
1010000000000000005633 45889785 0001234EMPRESA LTDA             000000000000000000000               002                 2301          0000000000000000000002370000  01N000000    0000000000000000000000000000000000000000000000000000000000000000000000000000000000                                                                                   nv lima     00000000BHT            MG                                                                000001