01REMESSA01COBRANCA       01231001345671000000FOO BAR LTDA                  237Bradesco       0000000000001                      0012562                                                                                                                                                                                                                                                                  012562
1010000000000000005633 4588978500001234EMPRESA LTDA             000000000000000000000   1   002            23   2301          00000000000000000002370000 01N000000    00000000000000000000000000000000000000000000000000000000000000000000000000                                                                                nv lima     00000000BHT            MG                                        00 000001